:020000040800F2
:1000000000000820111A0008451A0008E50300083E
:10001000ED030008F5030008FD03000800000000E0
:10002000000000000000000000000000F93B000894
:10003000451A000800000000B53B0008F53A00082A
:10004000451A0008451A0008451A0008451A000814
:10005000451A0008451A0008451A0008451A000804
:10006000451A0008451A0008451A0008451A0008F4
:10007000451A0008451A0008451A0008451A0008E4
:10008000451A0008451A0008451A0008B50300087B
:10009000A9030008451A0008B9030008451A00081A
:1000A000451A0008451A0008451A0008451A0008B4
:1000B000451A0008451A0008451A0008451A0008A4
:1000C000451A0008451A0008451A0008451A000894
:1000D000451A0008451A0008451A0008451A000884
:1000E000451A0008451A0008451A0008451A000874
:1000F000451A0008451A0008451A0008451A000864
:10010000451A0008451A0008451A0008451A000853
:10011000451A0008451A0008451A0008451A000843
:10012000451A0008451A0008451A0008451A000833
:10013000451A0008451A0008451A0008C9030008B6
:10014000BD030008451A0008CD030008451A000841
:10015000451A0008451A0008451A0008451A000803
:10016000451A0008451A0008451A0008451A0008F3
:10017000451A0008451A0008451A0008000000004A
:10018000451A0008451A0008451A0008451A0008D3
:10019000451A0008451A0008451A0008451A0008C3
:1001A000451A0008451A0008451A0008451A0008B3
:1001B000451A0008451A0008451A0008451A0008A3
:1001C000451A0008451A000800000000451A0008FA
:1001D000451A0008451A0008451A0008451A000883
:1001E000DD030008D1030008451A0008E1030008F8
:1001F000451A0008451A000810B5054C237833B994
:10020000044B13B10448AFF300800123237010BDE9
:10021000D804002000000000B053000808B5034BCC
:100220001BB103490348AFF3008008BD0000000084
:10023000DC040020B0530008A3F5803A704700BFEB
:10024000174B002B08BF134B9D46FFF7F5FF00210E
:100250008B460F461348144A121A04F0E7F80E4B67
:10026000002B00D098470D4B002B00D09847002062
:10027000002104000D000D48002802D00C48AFF307
:10028000008004F045F82000290003F039FB03F05A
:1002900061FE00BF0000080000000000FD10000823
:1002A00000000820D8040020D80B00200000000027
:1002B0000000000043692DE9F0410D46D9070446CE
:1002C00029D58768334E826807EA060C3248A3684E
:1002D000BE43324902EA000203EA010301D10126CA
:1002E000A660824202D14FF48070A0608B4202D19E
:1002F0004FF48031A16027498C4505D026498A42B8
:1003000002D0264A934206D1254B0121254A1B687B
:1003100052F825009847E2686369920708D09F0762
:1003200006D51F4B00211F4A1B6852F8250098472D
:10033000A16962698E0763690AD5900508D5190419
:1003400006D5174B0521174A1B6852F82500984718
:10035000A769666917F00407626906F4806609D028
:1003600046B1120406D50E4B07210E4A1B6852F8FF
:100370002500984763695FB156B11B0408D5084B47
:100380000221084A1B6852F82500BDE8F0411847D1
:10039000BDE8F08103000004000300080000031022
:1003A00000050020F404002000210148FFF782BF6F
:1003B00000640040FFF7F8BFFFF7F6BF01210148D6
:1003C000FFF778BF00680040FFF7F8BFFFF7F6BF00
:1003D00002210148FFF76EBF00340040FFF7F8BF6D
:1003E000FFF7F6BF4FF0100300F00CB84FF02003FA
:1003F00000F008B84FF0300300F004B84FF04003AD
:1004000000F000B8EFF308804FF0040172460A4292
:1004100001D0EFF309809C46254B196802680A60F9
:10042000043142680A60043182680A600431C2689B
:100430000A600431F0C147460F6004314F460F6037
:10044000043157460F6004315F460F600431026982
:100450000A60083142690A60043182690A60043125
:10046000C2690A600431034620334FF400763242F9
:1004700000D0043375464FF01006354200D14833A2
:100480000C46103C2360EFF309820A600431EFF35D
:1004900008820A60043172460A600431EFF3148264
:1004A0000A606046024B196800F04CFBFEE7000052
:1004B000B44F0008002070470368012200211B6927
:1004C0001847036800221B69114618476FF0150092
:1004D000704703681B69184703689B6918470368DE
:1004E0009B6A184700290CBF6FF018000020704766
:1004F000012070476FF0150070476FF015007047CE
:10050000704791FAA1F3B3FA83F391FAA1F130B5F0
:100510005B000325B1FA81F1046805FA03F3490091
:1005200024EA03038A401343036030BD00B5454B02
:100530008DB00A2800F28380DFE800F006131E2940
:10054000343F4A55606B76001A6B3F4842F0010217
:100550001A631B6B03F001030193019B0DB05DF85F
:1005600004FB1A6B394842F002021A631B6B03F05A
:1005700002030293029BF1E71A6B354842F0040232
:100580001A631B6B03F004030393039BE6E71A6BE8
:10059000304842F008021A631B6B03F0080304930F
:1005A000049BDBE71A6B2C4842F010021A631B6BAA
:1005B00003F010030593059BD0E71A6B274842F020
:1005C00020021A631B6B03F020030693069BC5E70A
:1005D0001A6B234842F040021A631B6B03F040037E
:1005E0000793079BBAE71A6B1E4842F080021A6312
:1005F0001B6B03F080030893089BAFE71A6B1A4844
:1006000042F480721A631B6B03F480730993099B95
:10061000A4E71A6B154842F400721A631B6B03F4CB
:1006200000730A930A9B99E71A6B114842F480629F
:100630001A631B6B03F480630B930B9B8EE70D48CF
:1006400000F0ACF900380240000002400004024013
:1006500000080240000C024000100240001402405A
:1006600000180240001C024000200240002402400A
:1006700000280240D04D000810B504464FF47071B8
:1006800000F078FF012004F00F04A04010BD00002E
:100690004B1C70B504460E46018216D0C1F3031000
:1006A000FFF744FF05463046FFF7E6FF238A074A77
:1006B00003F00F036561206052F82330A36105F158
:1006C000100318356360C4E9025570BD505200082C
:1006D000B0F9100000F0CEBF0A46D0E905010AB912
:1006E000FFF70FBF0122FBE708B502F05FFB002018
:1006F00008BD000008B50A4B1B684BB100F0F0FEC6
:1007000000F0DCFE4FF47A72002303F0A1FA08BD7A
:10071000044B586A4FF47A73B0FBF3F0F7E700BF6D
:100720009C050020000C004003460122D3E84F0F37
:10073000C3E8412FC0B20029F8D17047D0E84F3F3D
:10074000C0E8421FD8B2704700B589B0144E154DAD
:1007500000F078F8102101A800F062FA0424039B4D
:100760003046019A1A6000F0C9FE019B049A304697
:100770001B04136000F0C2FE013CF0D10424039B73
:100780002846019A1A6000F0B9FE019B049A284697
:100790001B04136000F0B2FE013CF0D1DEE700BFA5
:1007A000F0490200801A060007B5014600220190B8
:1007B000022000F0E9FB00F045F80199084604F03A
:1007C000CEF801990246022000F0DEFB03B05DF88E
:1007D00004EB00F041B8000000B5A3B002460B46A0
:1007E000842101A804F0F0F8832806D9074B1A6881
:1007F0001B79CDF883208DF88730002802DD01A811
:10080000FFF7D2FF23B05DF804FB00BFF14D0008F5
:100810000FB407B504A951F8040B0191FFF7DCFFF1
:1008200003B05DF804EB04B07047EFF31080C043F1
:1008300000F001007047EFF30580003818BF012079
:100840007047000008B500F013F8024A136801333E
:10085000136008BD04050020044A136823B1013B5E
:1008600013600BB900F016B8704700BF04050020F4
:10087000EFF3108372B6054A117831B9DB430449AE
:1008800003F001030B70012313707047090500206A
:1008900008050020034B00221A70034B1B7803B19C
:1008A00062B67047090500200805002008B50B480E
:1008B000FFF73AFF28B1FFF7C5FFBFF34F8F20BF07
:1008C000FDE7FFF7B8FF08B1FFF73EFFFFF7ADFF09
:1008D0000028F9D0012003F03DFB00BF580500209F
:1008E00070B51D4C90B00D46164634EA200428BF62
:1008F00004463422002103A803F098FD0295CDE9B7
:100900000046FFF79FFF154A13680133012B136060
:100910000BD16D46124C0FCD0FC40FCD0FC40FCDB0
:100920000FC495E80F0084E80F006C460D4D0FCC06
:100930000FC50FCC0FC50FCC0FC594E80F0085E88D
:100940000F00094B1B6813B1A5F130009847FFF762
:1009500083FF002010B070BD0101FF800C05002056
:10096000180500205C0500201005002030B5034666
:1009700000F13C04084D002013F8012B80EA0260CE
:10098000082200284FEA4000B8BF6840013AF8D179
:10099000A342F1D130BD00BFB71DC1040FB407B5EC
:1009A00001210648CDF804E0FFF7C8FE019A014690
:1009B00010B90348FFF794FFFFF778FF14050020F4
:1009C0000001FF80044601211D487646154608B502
:1009D000FFF7B4FE20B9324629462046FFF780FFD4
:1009E0001848FFF7C3FF184B184CD3F8BC20154D1F
:1009F000824220460ABFD3F8B43001230133636337
:100A00000023A363FFF7B2FFE063FFF71BFF0FCCE8
:100A10000FC50FCC0FC50FCC0FC594E80F0085E8AC
:100A20000F00FFF719FFBFF34F8F0949094BCA6841
:100A300002F4E0621343CB60BFF34F8F00BFFDE7CA
:100A40001405002078020020F80100205C05002039
:100A500000ED00E00400FA05F0B52C4E85B000244E
:100A60002B4F35462146013456F8042B3846FFF704
:100A7000CFFE0D2CF6D1AB6C264C02936B6C264846
:100A800001932B6C0093696BD5E90E23FFF7C0FE31
:100A900021682248FFF7BCFEE16AA26AA36AA06A45
:100AA000D2B2266BC3F30723E76B000CCDE90167D5
:100AB00000901B48FFF7ACFEA36A1E0603D5616BCE
:100AC0001848FFF7A5FEA36A180403D5A16B1648C2
:100AD000FFF79EFEEB6C190712D51448FFF798FE3E
:100AE0002B6DDA070FD51248FFF792FEEB6C5B0710
:100AF0004CBF1048104805B0BDE8F040FFF788BE75
:100B00000E48FFF785FE0E48EEE700BFF801002013
:100B1000F64D000800ED00E0044E0008534E0008BA
:100B2000614E0008B04E0008BE4E0008CC4E0008D2
:100B3000DB4E00080B4F0008174F0008FB4E000863
:100B4000E84E000813B504461548FFF761FE302C47
:100B500017D0402C1AD0202C1DD1124C1248FFF770
:100B600057FE1248FFF754FEFFF776FF1048FFF7D5
:100B70004FFE00230F4A204600930F49D26BFFF728
:100B800021FF0E480E4CFFF743FEEAE70D480E4CDE
:100B9000FFF73EFEE5E70D480D4CFFF739FEE0E7B5
:100BA000234F00083E01FF804C4F0008794F00089A
:100BB000844F0008F8010020A34F00085B4F000895
:100BC0003F01FF80644F00084001FF806F4F000825
:100BD0003D01FF8038B504460D4603685AB182686E
:100BE000204601211360FFF777FD29462046BDE826
:100BF0003840FFF76DBDC2681B04F1E737B50D46FD
:100C000004460192FFF744FD013507D0019A002107
:100C1000204603B0BDE83040FFF7DCBF03B030BD75
:100C20000022FFF7EBBF0000294B5A69910370B512
:100C300015D45A6912F4003211D1BFF34F8FBFF3AC
:100C40006F8FC3F85022BFF34F8FBFF36F8F5A6976
:100C500042F400325A61BFF34F8FBFF36F8F1C4BCA
:100C60005A69D20327D45A6912F4803223D1C3F8C7
:100C70008420BFF34F8FD3F8802043F6E074C2F393
:100C8000C900C2F34E32520102EA0406014646EAA6
:100C900081750139C3F86052F9D2203A12F1200F60
:100CA000F2D1BFF34F8F5A6942F480325A61BFF3D9
:100CB0004F8FBFF36F8F02F027F800F0C5FE02F0F0
:100CC00015F802F021F8034B01221A6070BD00BF35
:100CD00000ED00E09C0500201FB5431C10D105B0BD
:100CE0005DF804FB83420AD18968039000F042FC5E
:100CF0000021039805B05DF804EB00F0BBBC0C319B
:100D0000B1F900305A1CEDD10023024602481946C1
:100D10000093FFF757FE00BF30010180884207B5FE
:100D200002460AD0431C08D0013105D000230548F3
:100D300019460093FFF746FE0146084603B05DF8EA
:100D400004FB00BF30010180B1F900305A1C01D111
:100D500018467047834201D1486870470C31F3E769
:100D6000421C13B504460AD0FFF7EEFF431C06D120
:100D700000232246034819460093FFF723FE02B0E2
:100D800010BD00BF300101806FF01C0070476FF094
:100D90001500704701207047002070477047000021
:100DA000F8B515460C468F18054EBC4205D014F810
:100DB000011B304600F018FEF7E72846F8BD00BFDB
:100DC0000006002038B511F001048DB205D00848A6
:100DD00000F094FC041E18BF0124EB0605D504485E
:100DE00000F09CFC08B144F01004204638BD00BF60
:100DF0000006002010B5044603F0B2FA204610BDEC
:100E000010B50C462AB1044800F0DCFD207001202A
:100E100010BD1046FCE700BF0006002038B51D4697
:100E2000074B04460360074B1B6833B9064800F0C4
:100E3000E9FC2946044800F0ADFC204638BD00BF5F
:100E4000C04F0008E8050020000600200020704781
:100E500000207047074A084913681844884283BF36
:100E6000064B0C224FF0FF3010608CBF1A60184602
:100E7000704700BFFC03002000FC0720D40B0020BB
:100E8000012070477047704708B5FFF7FBFF08BDAA
:100E900008B5FFF7F8FF08BD037803F00303012B43
:100EA00009D0037803F00302012A04D043F00203BF
:100EB00003700120704700207047037823F003037C
:100EC00043F00103037070473F2870B504462FDCE0
:100ED000184D55F820305A1C13D1022811DCFFF7A9
:100EE000B7FF034658B92046FFF7B0FF034630B9B5
:100EF000114E3378BFF35B8FDB0704D50F4B45F8FA
:100F00002430184670BD3046FFF7C6FF0028F5D0E4
:100F10004FF41653392238210848FFF77FFF304637
:100F2000FFF7CBFF064A07490448FFF7A9FFE5E7AB
:100F30000023E6E7FC020020A0050020A405002015
:100F4000F80200209D0D000838B505460024FFF783
:100F5000BBFF0B4B43F8254030B902F0F5FF0923E6
:100F600003604FF0FF3038BD03685B699847051E8A
:100F700004DA6D4202F0E8FF0560F2E72046F2E78E
:100F8000FC020020FFF7E0BF13B5CDE90021FFF719
:100F90009BFFDDE9002140B902F0D6FF0923036081
:100FA0004FF0FF34204602B010BD0368DB6898475D
:100FB000041EF7DA644202F0C7FF0460F0E708B5E8
:100FC000131E07DA02F0C0FF162303604FF0FF3351
:100FD000184608BDFCD0FFF7D7FF40EAE073F7E7FB
:100FE00013B5CDE90021FFF76FFFDDE9002140B91E
:100FF00002F0AAFF092303604FF0FF34204602B03D
:1010000010BD03689B689847041EF7DA644202F03B
:101010009BFF0460F0E7002A08B503DBBDE8084049
:10102000FFF7DEBF02F090FF162303604FF0FF30A2
:1010300008BD13B5CDE90021FFF746FFDDE900212A
:1010400040B902F081FF092303604FF0FF342046CE
:1010500002B010BD03681B699847041EF7DA6442AA
:1010600002F072FF0460F0E7FFF7E3BF10B5FFF78F
:101070002BFF30B902F068FF092303604FF0FF3007
:1010800010BD03689B699847041E04DA644202F0AD
:101090005BFF0460F2E70020F2E700000A4D04461F
:1010A00008B52B68986803F02BF82B68D86803F014
:1010B00027F80120FFF7DAFF0220FFF7D7FF0CB176
:1010C000FFF742FBFEE700BF60040020704700000E
:1010D000084B094998684FF00053C21802F160426A
:1010E000126843F8042B8B42F7D1024B4FF00052A9
:1010F0009A60704700ED00E0C801002008B5FFF7D6
:10110000E7FFFFF791FD01F0A7FEFFF7DFFF08BD46
:101110002DE9F74F4468064694F83A10002955D156
:1011200001684968884771680546096A81424DD05F
:10113000206A4FF0000EE168281AA6682562014077
:10114000374886428C4639D094F83BB00027A1FB43
:101150000001D4E90A5ABBF1000F46D0CBF12008B8
:1011600020FA0BFCABF1200E2D1801FA08F8ABF1B8
:10117000200921FA0EFE4AEB010A4CEA080CCBF1D9
:1011800020084CEA0E0C21FA0BFE0CFA09F90EFAB3
:101190000BF12CFA08F80CFA0BF041EA09012B1AB2
:1011A00041EA080100936AEB01030193DDE90023A2
:1011B000BB4208BFB2420CD2C4E90A23D4E90C01F5
:1011C00010EB0C0041EB0E01C4E90C0103B0BDE8CB
:1011D000F08F1CF1010C009B4EF1000E9A1B019B3D
:1011E00063EB0703C4E90A23E8E732463B4602F013
:1011F0002FFD12EB050884468E4643EB0A09B945DC
:1012000008BFB04502D2C4E90A89D7E710F1010C42
:1012100041F1000EB8EB060269EB0703E2E700BFFD
:1012200040420F00824206D98A420BD9884294BFBD
:10123000002001207047884206D98A428CBF0020D6
:101240000120704701207047002070472DE9F74FBB
:10125000D0F80480074698F83A30002B7ED198F8F1
:101260003930002B7AD1FFF753FF7E683A687368F4
:101270000192002B64D0D6E90C01D3E900239942F6
:1012800008BF904205D3019B5B6903B0BDE8F04FF6
:101290001847141AD6F8109063EB0105D6E9062317
:1012A000AB4208BFA24206D3B2682E4B9A4219D174
:1012B000A14528BFA146326A019B9144F2681B698F
:1012C00009EA02021046019298473B685B6898471A
:1012D000019A0146D8F82000FFF7A4FF00283DD06E
:1012E0003B68D1E796F83B30EBB1A3F1200CC3F19A
:1012F000200205FA03F104FA03F004FA0CFC24FAC4
:1013000002F2194C002341EA0C0100194FF00004CD
:1013100041EA0201134A44EB010102F099FC8145C4
:1013200028BF8146C7E7A2FB04AB0F48002100237A
:1013300002FB05BB1AEB00000A4A4BEB0101ECE78C
:10134000D8F81030D8F82000D8F80C201844019BA9
:1013500010401B6903B0BDE8F04F184703B0BDE86B
:10136000F08F00BF40420F003F420F00436893F8E8
:1013700038202DE9F04F054685B0002A62D193F858
:101380003A30002B5ED103681B6898472B68DB69F5
:10139000984703682BB91A4619462C480093FFF763
:1013A00011FB1F21012202FA01F45FFA81FAA34224
:1013B00002D00139F7D18A464668321F1C2A05D966
:1013C000002323481A4619460093E8E71C460727DE
:1013D0000023204914F1FF3807FA02F7224643F1AF
:1013E000FF39C1FB0789404649464FF0000802F02B
:1013F0002FFC6B682A688946834603935268C3E9C9
:10140000008890470122039B002102FA06F6186229
:1014100000206B68013EC3E90A01C3E90C019C602E
:10142000284683F83BA01A8783F83A80C3E903670C
:10143000C3E906B9FFF76CFE284605B0BDE8F04FDA
:10144000FFF704BF05B0BDE8F08F00BF0E010480B8
:101450000501048040420F0070B50446FFF7F2F921
:101460002368DB689847636893F83A201AB1BDE8AF
:101470007040FFF7F1B9012283F8392063685B6897
:10148000A3B12046FFF744FE65686E68D5E90C01FC
:10149000D6E90023994208BF904207D3F3686B60F6
:1014A0002B68002BEAD0B0689847E7E76368002212
:1014B000204683F83920FFF7C9FED8E738B504463F
:1014C000FFF754FFFFF7BEF92046FFF721FE6368E0
:1014D000D3E90C45FFF7C0F92046294638BD7047CF
:1014E0000048704714500008024B1B680BB10248BB
:1014F000184770470004002014500008034B596A35
:101500005A6A521A8242FBD3704700BF000C004057
:1015100091FAA1F3B3FA83F391FAA1F130B55B002C
:101520000325B1FA81F1846805FA03F3490024EA3E
:1015300003038A401343836030BD91FAA1F3B3FAE9
:1015400083F391FAA1F130B55B000325B1FA81F183
:10155000C46805FA03F3490024EA03038A401343ED
:10156000C36030BD012A02D0022A18BF0022FFF753
:10157000E4BF00002DE9F84300F00F02C1F3831827
:101580003B4B1FFA80F9C0F3031001F0070653F834
:1015900022700D46FEF7CAFFB8F10F0F3946044618
:1015A0000CBF03224246FFF7B3FF022E2BD0032EBF
:1015B0005BD0711E4B424B4197FAA7F2B2FA82F20E
:1015C00003202168013E5200012E00FA02F221EAB6
:1015D000020197FAA7F2B2FA82F24FEA420203FA44
:1015E00002F343EA0103236005D863682A074CBF6E
:1015F0003B43BB436360C5F3011239462046BDE857
:10160000F843FFF7AFBF19F0080FC5F3832217D0D7
:101610003B0A4FF00F0C93FAA3F1B1FA81F1406A43
:1016200093FAA3F38900B3FA83F30CFA01F19B0058
:1016300020EA010102FA03F30B4363620223BBE7D2
:1016400097FAA7F1B1FA81F1036A0F20890000FA35
:1016500001F123EA010197FAA7F3B3FA83F39B00A0
:1016600002FA03F30B432362E8E73346A4E700BF23
:101670005052000800F00F02C0F3031038B51E4BA3
:101680000C4653F82250FEF751FF95FAA5F2B2FA34
:1016900082F301685A000323934095FAA5F2B2FA47
:1016A00082F20B405200D340013B012B1AD8E31EBB
:1016B000022B436809D82B43032C43601AD1012223
:1016C0002946BDE83840FFF74DBF23EA0503012C4A
:1016D0004360F4D0022C0BD029460022BDE83840EC
:1016E000FFF72BBF04F0FD03012BE8D0052CF1D14F
:1016F0000222E5E7052CEEE750520008426870230D
:101700005343054AD358DA69120701D508221A62F1
:10171000D869C0F3401070474C060020426870231F
:101720005343034AD358D869C0F3C010704700BF71
:101730004C06002003464168702210B44A431C68DE
:101740001349545050189A684260DA6882601A69E6
:10175000C2605A6902611A6A82610022A0F85220AE
:10176000C261A0F85020A0F85A20A0F85820B3F980
:101770001A20013205D108235DF8044B436101F0C2
:10178000CAB9B3F9183001330CBF04230C23F3E7B3
:101790004C0600208160FFF7CDBF0000184B984237
:1017A0001FD0A3F54C4398421DD003F580639842A7
:1017B0001BD003F58063984219D003F580639842EB
:1017C00017D003F54443984215D0A3F51C43984223
:1017D00013D003F58063984214BF4FF0FF30072009
:1017E0007047002070470120704702207047032097
:1017F000704704207047052070470620704700BFDF
:1018000000100140F0B50E46154689B00446604907
:101810003046FFF7A5FA07465E492846FFF7A0FACB
:1018200001463846FFF77AFA382E20600AD0392D63
:1018300008D057493820FFF793FAB84220D15648CC
:10184000FFF7ACF801272068544B98421AD103F5F2
:1018500094335A6C42F010025A645B6C03F010032C
:101860000093009B4E4B984269D14E4B5A6C42F00C
:1018700020025A645B6C03F020030593059B18E07B
:101880000027E0E7484B984244D003F58063984234
:101890004BD0464B984260D0454B9842E2D1414BE9
:1018A0001A6C42F480121A641B6C03F480130493C4
:1018B000049BFFF773FF364960603046FFF70CFA70
:1018C00028463449FFF708FA701C03D0012130463E
:1018D000FFF7D0FE691C03D001212846FFF7CAFE9E
:1018E00000234FF416522046268323626583C4E901
:1018F0000223C4E90433FFF71DFF002F45D02D4B11
:10190000012221462C481A604C2209B0BDE8F04063
:1019100002F07EBD234B1A6C42F400321A641B6C39
:1019200003F400330193019B9CE71E4B1A6C42F4B5
:1019300080221A641B6C03F480230293029B1F4BCA
:10194000984214D1174B1A6C42F080421A641B6CF7
:1019500003F080430693069BABE7124B1A6C42F4EC
:1019600000221A641B6C03F400230393039B144BA3
:1019700098429ED10B4B1A6C42F000421A641B6CC9
:1019800003F000430793079B93E709B0F0BD00BF46
:1019900048510008405000089052000800100140D3
:1019A000001401400038024000440040004C004058
:1019B00000500040E80500200006002000780040AC
:1019C000007C004038B5044645682046FFF796FE87
:1019D0000028FAD07023034A6B43D358586AC0F3E7
:1019E000080038BD4C06002070B505460C46466818
:1019F0002846FFF793FE0028FAD07023034AC4F369
:101A000008047343D3589C6270BD00BF4C0600208D
:101A1000DFF820D0002103E0074B5B58435004312E
:101A20000648074B42189A42F6D301F0C7F8FEF772
:101A300007FC704700000820BC530008F802002093
:101A4000D8040020FEE7704708B5094B03201A6848
:101A500042F400721A601A6842F480721A6000F050
:101A600009F80F20FEF740FEFFF7EDFF002008BD4C
:101A7000003C024007490302CA6803F4E06322F411
:101A8000E0621204120C134343F0BF6343F40033CB
:101A9000CB60704700ED00E0194B37B51A6C194C5C
:101AA00042F080521A641B6C03F080530193019B37
:101AB000236843F480332360FEF71CFE0546636809
:101AC000DA030CD523680F4D43F400332360FEF78F
:101AD00011FE04466B689B030AD5002006E0FEF762
:101AE00009FE401BB0F57A7FE9D9032003B030BD71
:101AF000FEF700FE001BB0F57A7FEBD9F5E700BFDB
:101B000000380240007000402DE9F341044618B946
:101B1000012002B0BDE8F0810368D80710D4236823
:101B2000990761D42368190700F1A88023685A0730
:101B300000F1C980A269002A40F032810020E8E764
:101B4000954B9A6802F00C02042A07D09A6802F0BA
:101B50000C02082A0AD15A68520207D58E4B1B681C
:101B60009B03DCD56368002BD9D1D1E76268B2F55D
:101B7000803F11D11A6842F480321A60FEF7BAFD34
:101B8000854E054633689F03C9D4FEF7B3FD401B5D
:101B9000C828F7D90320BCE77F4D2B6892B923F4FE
:101BA00080332B602B6823F480232B60FEF7A2FD8B
:101BB00006462B689803B2D5FEF79CFD801BC8280B
:101BC000F7D9E7E7B2F5A02F07D143F480232B60C4
:101BD0002B6843F480332B60D0E723F480332B60F1
:101BE0002B6823F48023F6E76B4B9A6812F00C0FF6
:101BF00007D09A6802F00C02082A12D15A685102E2
:101C00000FD4654B1A68920703D5E268012A7FF466
:101C10007FAF1A68216922F0F80242EAC1021A6015
:101C200080E7E268C2B11A685B4D42F001021A60B7
:101C3000FEF760FD06462B689F0707D52B682269D3
:101C400023F0F80343EAC2032B606BE7FEF752FD73
:101C5000801B0228EFD99DE71A684F4E22F001023F
:101C60001A60FEF747FD0546336898077FF55AAFBF
:101C7000FEF740FD401B0228F6D98BE76369464D0D
:101C800083B16B6F43F001036B67FEF733FD0646CC
:101C90006B6F9B073FF54AAFFEF72CFD801B0228B8
:101CA000F6D977E76B6F23F001036B67FEF722FD30
:101CB00006466B6F9F077FF539AFFEF71BFD801B54
:101CC0000228F6D966E7344B1A6CD00027D41A6C78
:101CD000012742F080521A641B6C03F08053019379
:101CE000019B2E4D2B68D9051BD5A3682A4D012BCE
:101CF00027D12B6F43F001032B6741F28838FEF7A1
:101D0000F9FC254E0546336F9B073FD5002F3FF466
:101D100011AF214A136C23F0805313640AE70027A4
:101D2000DFE72B6843F480732B60FEF7E3FC064685
:101D30002B68DA05D9D4FEF7DDFC801B6428F7D9BF
:101D400028E7ABB92B6F41F2883823F001032B67EA
:101D50002B6F23F004032B67FEF7CCFC06462B6F9A
:101D60009807D3D5FEF7C6FC801B4045F7D911E78D
:101D7000052B2B6F03D143F004032B67B9E723F046
:101D800001032B672B6F23F00403B5E7FEF7B2FCCA
:101D9000401B4045B7D9FDE60038024000700040C6
:101DA000244DAB6803F00C03082B3FF4B1AE2B6855
:101DB000022A23F080732B602FD1FEF79BFC06468E
:101DC0002B68990123D4D4E907321343626A43EAAA
:101DD0008213E26A43EA0263226B43EA0273A26A55
:101DE0005208013A43EA02436B602B6843F0807368
:101DF0002B60FEF77FFC0F4D04462B689A013FF5E0
:101E00009DAEFEF777FC001B0228F6D9C2E6FEF76E
:101E100071FC801B0228D3D9BCE6FEF76BFC04469C
:101E20002B689B017FF58AAEFEF764FC001B02283D
:101E3000F6D9AFE600380240134908B58B6803F0C5
:101E40000C03042B1BD0082B1BD14A684B68496834
:101E500002F03F0213F48003C1F388111ABF0B484C
:101E600000230B48A1FB000101F0F2FE064B5B686A
:101E7000C3F3014301335B00B0FBF3F008BD03483B
:101E8000FCE70348FAE700BF0038024000127A007E
:101E90000024F4002DE9F0410D46044610B901205C
:101EA000BDE8F081454A136803F00F038B4227D346
:101EB000226897072FD4D00743D4404A136803F011
:101EC0000F03AB4266D8226851076FD4130707D5BA
:101ED0003B4A2169936823F4604343EAC10393605A
:101EE000FFF7AAFF364B374A9B68C3F30313D35C53
:101EF000D840354B18600F20FEF7F6FB0020CFE7E7
:101F0000136823F00F030B431360136803F00F03F0
:101F10008B42C4D1CCE712F0040F294B03D099684F
:101F200041F4E0519960160703D5996841F4604186
:101F300099602349A0688B6823F0F00303438B600A
:101F4000B9E761681E4B01291A681BD112F4003FE2
:101F5000A5D09A6841F28838194F22F003020A434B
:101F60009A60FEF7C7FB0646BB68626803F00C0385
:101F7000B3EB820FA1D0FEF7BDFB801B4045F3D928
:101F800003208DE7022902D112F0007FE0E712F072
:101F9000020FDDE7136823F00F032B431360136870
:101FA00003F00F03AB427FF47AAF8CE70449E0689B
:101FB0008B6823F4E05303438B6087E7003C0240C7
:101FC00000380240E952000804040020044B054A8E
:101FD0009B68C3F38223D35C034A1068D8407047E0
:101FE00000380240F952000804040020044B054A5E
:101FF0009B68C3F34233D35C034A1068D8407047F0
:1020000000380240F9520008040400200F23036046
:102010000B4B9A6802F0030242609A6802F0F002E9
:1020200082609A6802F4E052C2609B68DB0803F4A5
:10203000E0530361034B1B6803F00F030B60704711
:1020400000380240003C024003682DE9F74313F0DA
:10205000010604460BD0BA4A916821F40001916050
:10206000466B91683143B6FA86F67609916013F4AF
:10207000002512D0B249E56BD1F88C20B5F5801F50
:1020800022F4401208BF012642EA050216BFB5FA43
:1020900085F500256D09C1F88C20D90210D5A84816
:1020A000216CD0F88C20B1F5800F22F4400242EA76
:1020B0000102C0F88C2000F0A881002908BF01258A
:1020C00013F0807F18BF01269A0631D59C4B9D4F97
:1020D0001A6C42F080521A641B6C03F08053019317
:1020E000019B3B6843F480733B60FEF703FB804633
:1020F0003B68DB0540F18B81914F3B6F13F44073DC
:1021000040F09081236B03F44072B2F5407F8C4A1B
:1021100040F0AE81916823F0704021F4F81120F472
:10212000407001439160C3F30B03116F0B431367BE
:102130002368DA060CD5824AD2F88C1021F080711F
:10214000C2F88C10D2F88C10A06B0143C2F88C102E
:102150005F0408D57A49606ED1F8902022F44032AD
:102160000243C1F89020180408D57549A06ED1F833
:10217000902022F440220243C1F89020D90308D5D0
:102180006F49E06ED1F8902022F440120243C1F86A
:1021900090209A0308D56A49206FD1F8902022F444
:1021A00040020243C1F890205F0608D56449606C84
:1021B000D1F8902022F003020243C1F890201806C3
:1021C00008D55F49A06CD1F8902022F00C020243A0
:1021D000C1F89020D90508D55949E06CD1F8902074
:1021E00022F030020243C1F890209A0508D55449E4
:1021F000206DD1F8902022F0C0020243C1F8902057
:102200005F0508D54E49606DD1F8902022F44072E8
:102210000243C1F89020180508D54949A06DD1F8AE
:10222000902022F440620243C1F89020D90408D5DE
:102230004349E06DD1F8902022F440520243C1F8A6
:1022400090209A0408D53E49206ED1F8902022F4BF
:1022500040420243C1F890205F0208D53849A06F80
:10226000D1F8902022F080620243C1F890209802B9
:102270000CD53348E16FD0F89020B1F1006F22F017
:10228000006208BF01250A43C0F8902013F0080F30
:1022900018BF0125590308D52949606FD1F890204E
:1022A00022F040720243C1F890201A0209D5244955
:1022B000D4F88000D1F8902022F080520243C1F877
:1022C00090205F0109D51E49D4F88400D1F89020F0
:1022D00022F000520243C1F89020180109D5184994
:1022E000D4F88800D1F88C2022F000720243C1F8A3
:1022F0008C20D90040F13E81114A012ED4F88C1077
:10230000D2F88C3023F0806343EA0103C2F88C30AA
:1023100000F0B280012D76D1094D2B682E4623F0B6
:1023200080532B60FEF7E6F907462B689B0000F10F
:102330002E812268150307D5E36B4BB104E000BF83
:102340000038024000700040D0021CD5236CD3B985
:10235000D6F88830D6F8881003F4403301F0E04115
:102360000B43616943EA8113A16943EA0163C6F83B
:102370008830D6F88C30A16A23F4F853013943EA47
:102380000123C6F88C30910215D5E36FB3F1006FCD
:1023900011D18649D1F88830D1F8880003F07063F4
:1023A00000F0E0400343606943EA8013206A43EA97
:1023B0000043C1F88830120719D57C4AD2F888103A
:1023C000D2F8883001F0706103F440330B43616947
:1023D00043EA8113E16943EA0173C2F88830D2F815
:1023E0008C30E16A23F440330B43C2F88C306F4CDD
:1023F000236843F080532360FEF77CF90546236889
:102400009B0040F1CB80002009E0012658E6FEF752
:1024100071F9A0EB080064287FF66AAE032003B0D0
:10242000BDE8F083226B02F440729A423FF46AAE38
:102430003B6F3A6F23F4407342F480323A673A6F4D
:1024400022F480323A673B673B6FD8077FF55AAE7C
:10245000FEF750F941F2883980463B6F99073FF506
:1024600051AEFEF747F9A0EB08004845F5D9D5E78E
:10247000916821F4F81155E64C4E336823F08063DF
:102480003360FEF737F9074633681A0178D42268BB
:10249000D30712D5636B83B9D6F88430D6F884108D
:1024A00003F4403301F070610B43616843EA811328
:1024B000A16843EA0173C6F88430170303D5E36BC0
:1024C000B3F5801F05D0D6021ED5236CB3F5800F5F
:1024D0001AD13649D1F88430D1F8840003F440335E
:1024E00000F0E0400343606843EA8013E06843EA99
:1024F0000063C1F88430D1F88C00636A20F01F00BB
:10250000013B0343C1F88C30D00111D52749D1F8E4
:102510008430D1F8840003F0706300F0E04003439E
:10252000606843EA8013206943EA0043C1F88430BD
:1025300091010DD5236962681B0443EA8213E268A6
:1025400043EA0263A26843EA0273184AC2F884307D
:10255000164E336843F080633360FEF7CBF80746CE
:1025600033681A013FF5D6AEFEF7C4F8C01B6428E5
:10257000F6D953E7012E3FF47FAFB3F1007FC7E6F2
:10258000FEF7B8F8C01B64287FF67EAF46E7FEF77B
:10259000B1F8C01B64287FF6C8AE3FE7FEF7AAF883
:1025A000401B64287FF62BAF38E700BF003802409D
:1025B00070470000304A0368904212D0B0F1804F5B
:1025C0000FD0A2F57C4290420BD002F5806290427F
:1025D00007D002F58062904203D002F57842904223
:1025E00019D14A6823F070031343234A904229D03B
:1025F000B0F1804F26D0A2F57C42904222D002F565
:10260000806290421ED002F5806290421AD002F59C
:102610007842904216D0194A904213D002F5806257
:1026200090420FD002F5806290420BD0A2F5983212
:10263000904207D002F58062904203D002F580629A
:10264000904203D123F44073CA6813434A6923F0CC
:102650008003134303608B68C3620B688362064B7D
:10266000984203D003F58063984201D10B6903635C
:1026700001234361704700BF00000140004001405A
:1026800010B50446A0B190F83D3003F0FF021BB92D
:1026900080F83C20FFF78CFF02232068211D84F87E
:1026A0003D30FFF787FF0123002084F83D3010BD47
:1026B0000120FCE710B50124036A8C4002FA01F105
:1026C00023EA04030362036A0B43036210BD0000A4
:1026D00010B5044601220068FFF7ECFF2368084AA2
:1026E000934203D002F58062934203D15A6C42F4C4
:1026F00000425A641A68002042F001021A6010BDBC
:102700000000014070472DE9F041DDF818800446D3
:102710000E4615461F462268D36936EA03030CBFEE
:1027200001230023AB4201D0002017E0B8F1FF3FA6
:10273000F2D0B8F1000F13D1236803201A6822F4F5
:10274000D0721A609A6822F001029A60202384F8FD
:10275000693084F86A30002384F86830BDE8F0817D
:10276000FDF7C8FFC01B4045D5D3E5E738B5C269C2
:1027700004460368816800691D680143606901437C
:102780009E4811432840256A0143E0681960596852
:1027900021F4405101435960A1699868294320F40C
:1027A00030600143996096498B421DD101F5943107
:1027B000D1F8901001F003010139022900F2FF80E5
:1027C0009048B2F5004F415C40F0AB80082900F220
:1027D000A580DFE811F0E200F700FD00A300090189
:1027E000A300A300A300320087498B4207D101F563
:1027F000FA318648D1F8901001F00C01E1E78449E4
:102800008B421FD101F5F831D1F8901001F0300161
:10281000202900F0DA800AD8002900F0BB801029B6
:1028200000F0DF80B2F5004F78D00120C6E03029FB
:10283000F8D1B2F5004F40F0A8806268530803F564
:102840008033CBE073498B4210D101F5F631D1F8DA
:10285000901001F0C001802900F0B78004D8002951
:1028600000F098804029DBE7C029E1E76A498B4204
:1028700013D101F5F431D1F8901001F44071B1F5A4
:10288000007F00F0A28005D8002900F08380B1F518
:10289000807FC5E7B1F5407FCAE760498B4213D11D
:1028A00001F59231D1F8901001F44061B1F5006F5B
:1028B00000F08B8005D8002900F08180B1F5806F91
:1028C000AEE7B1F5406FB3E755498B4211D101F541
:1028D000E031D1F8901001F44051B1F5005F74D0AF
:1028E00004D8002956D0B1F5805F99E7B1F5405F73
:1028F0009EE74C498B4295D101F5DE31D1F890101D
:1029000001F44041B1F5004F5FD004D8002941D017
:10291000B1F5804F84E7B1F5404F89E701200023EE
:1029200045E0082981D801A252F821F05129000878
:10293000692900086F2900082B280008852900084C
:102940002B2800082B2800082B2800088B290008BA
:10295000FFF73CFBD4E9002300EB5300B0FBF3F09E
:1029600080B2D060002029E0FFF740FBF2E7616809
:102970004A0802F5740202F51052B2FBF1F292B26B
:10298000DA60EFE7FFF758FAE4E761684A0802F512
:102990000042F2E7B2F5004FDAD1FFF717FB6368A8
:1029A0005A0802EB4000B0FBF3F39BB2002023F087
:1029B0000F02C3F3420321681343CB6038BDB2F565
:1029C000004FD1D1FFF712FBE9E7B2F5004FCED1AE
:1029D0006268530803F1F47303F59043B3FBF2F319
:1029E000E3E7B2F5004FCDD1FFF726FA61684A0858
:1029F00002EB4003B3FBF1F3D7E700BFF369FFEF4E
:102A000000100140C552000800440040C8520008B0
:102A100000480040004C00400050004000140140BD
:102A200000780040007C0040436ADA0710B506D504
:102A30000168846A4A6822F4003222434A609C0793
:102A400006D50168C46A4A6822F4803222434A608B
:102A5000590706D50168046B4A6822F48022224394
:102A60004A601A0706D50168446B4A6822F400429E
:102A700022434A60DC0606D50168846B8A6822F42A
:102A8000805222438A60990606D50168C46B8A6821
:102A900022F4005222438A605A0610D50168046C61
:102AA0004A68B4F5801F22F4801242EA04024A60A8
:102AB00005D14A68446C22F4C00222434A601B06D6
:102AC00006D50268816C536823F400230B435360DE
:102AD00010BD37B500250446C566FDF70BFE22681C
:102AE00003461268120709D42023002084F86930B5
:102AF00084F8680084F86A3003B030BD6FF07E421D
:102B00004FF40011204600922A46FFF7FCFD0028F2
:102B1000EAD00320F0E710B5044660B390F86930BE
:102B200003F0FF021BB980F86820FFF7EBFD226875
:102B30002423204684F86930136823F001031360CE
:102B4000FFF714FE012816D0636A13B12046FFF781
:102B50006BFF236820465A6822F490425A609A68B4
:102B600022F02A029A601A6842F00102BDE8104081
:102B70001A60FFF7AEBF012010BD10B50223AAB046
:102B80000F220024072101A8CDE901234FF4A0530F
:102B9000CDE903434FF480530593FFF77BF958B910
:102BA0004FF40013259006A80693FFF74DFAB0FAEC
:102BB00080F040092AB010BD2046FBE70E490020F6
:102BC000D1F8883043F47003C1F888300B4B1A6891
:102BD00042F001021A6098601A6822F0847222F4AE
:102BE00080321A60064A5A601A6822F480221A60FB
:102BF000D860044B8B60704700ED00E00038024065
:102C000010300024000000081E4B00284FF0040183
:102C10001A6C42F0805200B51A6491B01B6C03A884
:102C200003F080530193019B174B1A6842F4404212
:102C30001A604FF480021B6803F440430293029B26
:102C40004FF0010303930CBF4FF480334FF4A023E4
:102C500004930223CDE90932D8220D93CDE90B125A
:102C60000922CDE90E23FEF74FFF18B1002011B065
:102C70005DF804FBFEF710FF0028F7D1FFF77DFF9A
:102C8000F5E700BF0038024000700040164B0820F6
:102C900010211A6C42F0805200B51A648FB01B6C80
:102CA0000122059103F08053049200220093009BBF
:102CB0000223029201930B93CDE90732D822CDE98A
:102CC0000902092201A8CDE90C23FEF71DFF18B166
:102CD00000200FB05DF804FBFEF7DEFE0028F7D100
:102CE000FFF74BFFF5E700BF0038024008B50120B1
:102CF000FFF78AFF28B9FFF7C9FF10B90148FDF7B0
:102D00004DFE08BDD5520008174A1849936803F0D4
:102D10000C03042B10B50DD0082B0DD0144B0B60F9
:102D2000114B144A9B68C3F30313D25C0B68D34066
:102D30000B6010BD104BF2E7546850686302526894
:102D400000F03F0048BF0C4BC2F3881258BF084B3D
:102D5000B3FBF0F35343044A5268C2F30142013219
:102D60005200B3FBF2F3DAE700380240040400201B
:102D70000024F400E952000800127A00074B084AC8
:102D800013601A69910707D5DA68920704D56FF0C6
:102D900002021A61FEF7A8BB704700BF000C00409A
:102DA000CC090020004870470453000830B589B0B2
:102DB000234C01A903A8FFF729F9FFF707F9214BD5
:102DC00001901A6C42F008021A641A6C02F00802B0
:102DD0000292029A1A6A42F008021A621A6A22F0F1
:102DE00008021A62A3F50B33069A23604FF0FF33F3
:102DF000E360154B0ABB0025B0FBF3F001382561F9
:102E0000A56060600E48C4E90555FFF739FC0F4B1B
:102E10000F4A9B68C3F80821BFF34F8F0D4B4FF447
:102E200080225A6006482946FFF752FC2268D36880
:102E300023F00203D36009B030BD4000DBE700BFE0
:102E4000CC0900200038024040420F0000ED00E0B5
:102E50007D2D000800E100E0044800210268D368ED
:102E600023F00203D360FFF733BC00BFCC0900207E
:102E7000014B586A704700BF000C0040054B6FF0D3
:102E800002021B6858631A61DA6842F00202DA60D3
:102E9000704700BFCC090020064B6FF002021B6890
:102EA0001A615A6942F002025A61DA6842F002027B
:102EB000DA607047CC090020034B1A68D36823F00E
:102EC0000203D360704700BFCC090020024B6FF0B3
:102ED00002021B681A617047CC09002082B0019081
:102EE0000091009B00229A70009B0022DA70009BE8
:102EF00000225A70009B00225A71009B00221A7116
:102F0000009B00221A70019B00221A73019B002271
:102F10005A73019B00229A73019B0022DA73019B72
:102F20004FF000021A60019B4FF000025A60019BB3
:102F30004FF000029A6000BF02B0704792B00346A3
:102F40008DED0E0B8DED0C1B8DED0A2B8DED083BE1
:102F50008DED064B8DED045B8DED106ACDED036AB2
:102F60008DED027A019100928DF84730009B5B79DC
:102F7000FF2B05D0009B5B790133DAB2009B5A71BD
:102F8000009B1B79002B1ED1009B01221A71009B14
:102F900006221A70019B00221A73019B00225A73A9
:102FA000019B00229A73019B0022DA73019B4FF070
:102FB00000021A60019B4FF000025A60019B4FF023
:102FC00000029A602BE2009B1B78013B042B00F26D
:102FD0000C8201A252F823F0ED2F000823300008E4
:102FE000FF30000861310008793200089DF8473051
:102FF000042B40F01182009B02221A70009B0122D8
:103000009A70019B4FF000021A60019B4FF0000282
:103010005A60019B4FF000029A60019B00221A73D4
:10302000FAE1009B9B78032B28D0032B37DC012B84
:1030300002D0022B14D032E0019B00221A739DEDC6
:10304000047BB5EE407BF1EE10FA50D1009B0322D9
:103050009A70009B00225A71019B00229A7346E0ED
:10306000019B0122DA73009B5B79632B41D9009BA2
:1030700004229A70019B0022DA733AE0019B00223D
:103080009A73009B5B79632B35D9009B02229A705F
:10309000009B00225A71019B0122DA732BE0019BF5
:1030A0000022DA739DED0E7BB7EE006BB4EE467B2B
:1030B000F1EE10FA21D1009B00229A70009B0622AB
:1030C0001A70019B00221A73019B00225A73019B04
:1030D00000229A73019B4FF000021A60019B4FF08F
:1030E00000025A60019B4FF000029A6005E000BFA9
:1030F00095E100BF93E100BF91E100BF8FE19DED3D
:103100000C7BB7EE006BB4EE467BF1EE10FA03D108
:10311000009B01221A7082E19DF84730032B15D1E4
:10312000009B04221A70009B0222DA70019B4FF070
:1031300000021A60019B4FF000025A60019B4FF0A1
:1031400000029A60019B00221A7368E1019B109AA9
:103150001A60019B039A5A60019B029A9A605EE191
:10316000009BDB78012B02D0022B21D041E0019B98
:1031700000229A739DED067BB5EE407BF1EE10FACE
:1031800006D1009B0322DA70019B00225A736DE086
:103190009DED0C7BB7EE006BB4EE467BF1EE10FAC2
:1031A00064D1009B0022DA70009B01221A705DE05E
:1031B000019B00221A739DED047BB5EE407BF1EE7E
:1031C00010FA06D1009B0122DA70019B00229A734B
:1031D0004EE09DED0C7BB7EE006BB4EE467BF1EE5E
:1031E00010FA45D1009B0022DA70009B01221A7070
:1031F0003EE0019B00225A739DED087BB5EE407BBB
:10320000F1EE10FA22D19DED0A7BB5EE407BF1EE96
:1032100010FA1BD1009B0022DA70009B06221A7064
:10322000019B00221A73019B00229A73019B0022CA
:10323000DA73019B4FF000021A60019B4FF000020D
:103240005A60019B4FF000029A6013E09DED0C7BE9
:10325000B7EE006BB4EE467BF1EE10FA0AD1009B9C
:103260000022DA70009B01221A7003E000BFD6E052
:1032700000BFD4E000BFD2E0009B5B78032B54D0AA
:10328000032B00F38A80012B02D0022B2FD084E085
:10329000019B01229A73019B01221A739DED047B0D
:1032A000B7EE006BB4EE467BF1EE10FA0FD19DED58
:1032B000067BB7EE006BB4EE467BF1EE10FA06D15A
:1032C000009B00225A70009B03221A7085E09DED3E
:1032D0000C7BB7EE006BB4EE467BF1EE10FA7CD1BE
:1032E000009B00225A70009B01221A7075E0009B1F
:1032F0005B79C72B09D9009B01225A70019B0122DF
:103300009A73019B01221A7369E09DED0C7BB7EE65
:10331000006BB4EE467BF1EE10FA60D1009B002208
:103320005A70009B01221A7059E0019B01225A73C6
:103330009DED087BB7EE006BB4EE467BF1EE10FA24
:103340001BD19DED0A7BB7EE006BB4EE467BF1EE30
:1033500010FA12D1009B02225A70009B00225A716F
:10336000019B4FF000021A60019B4FF000025A606F
:10337000019B4FF000029A6033E09DED0C7BB7EEAD
:10338000006BB4EE467BF1EE10FA2AD1009B0022CE
:103390005A70009B01221A7023E09DED0E7BB7EE60
:1033A000006BB4EE467BF1EE10FA06D1009B0322CF
:1033B0005A70019B01225A7315E09DED0C7BB7EE0C
:1033C000006BB4EE467BF1EE10FA0CD1009B0022AC
:1033D0005A70009B01221A7005E000BF1FE000BF79
:1033E0001DE000BF1BE000BF19E0019B00221A7323
:1033F000019B00225A73019B00229A73019B0022B9
:10340000DA739DF84730022B08D1009B05221A7011
:10341000009B04225A7001E000BF00E000BF00BF23
:1034200012B0704700B589B0884B93F82930002B53
:103430000BD1864B012283F82920844B032283F889
:10344000282000238DF81F30B5E0804B93F82830FA
:10345000013B032B00F2938001A252F823F000BF3E
:103460007134000899340008BF3400080D35000895
:1034700004238DF81F30764B93ED0C7BB5EE407B2B
:10348000F1EE10FA40F08E80704B042283F8282071
:1034900002238DF81F3085E004238DF81F306C4B1C
:1034A00093ED2A7BB5EE407BF1EE10FA7CD1674BB1
:1034B000042283F8282002238DF81F3074E00023B3
:1034C0008DF81F30624B93ED147BB7EE006BB4EEBA
:1034D000467BF1EE10FA69D15D4B93ED327BB7EE8E
:1034E000006BB4EE467BF1EE10FA5FD1594B93EDD1
:1034F000067BB5EE407BF1EE10FA57D1534B042218
:1035000083F8282002238DF81F304FE002238DF826
:103510001F304F4B93ED0C7BB7EE006BB4EE467B48
:10352000F1EE10FA07D1494B012283F82820042339
:103530008DF81F303CE0474B93ED067BB7EE006BF8
:10354000B4EE467BF1EE10FA07D1404B052283F82A
:10355000282003238DF81F302AE03D4B93ED2A7B72
:10356000B7EE006BB4EE467BF1EE10FA20D1374B8C
:10357000022283F8282004238DF81F3018E003234B
:103580008DF81F30334B93ED067BB5EE407BF1EEAB
:1035900010FA0FD12D4B032283F8282000238DF839
:1035A0001F3007E000BF06E000BF04E000BF02E0FC
:1035B00000BF00E000BF264BD3E900232649C1E944
:1035C0000023002301930FE0019B591C1F4A019B1C
:1035D000DB001344D3E900231F48C9000144C1E9BB
:1035E0000023019B01330193019B042BECDD4FF081
:1035F00000024FF00043CDE90223002301930EE0C7
:10360000154A019BDB00134493ED007B9DED026B9B
:1036100036EE077B8DED027B019B01330193019B0D
:10362000052BEDDD0D4B93ED006B9DED025B85EE03
:10363000067B8DED047B074B93F85030012B0FD1A7
:10364000044BD3E90423CDE902230DE0800B0020D5
:10365000180A002008040020300B00201053000836
:10366000DDE90423CDE902235E4B93ED140B5D4BA2
:1036700093ED0C1B5B4B93ED102B5A4B93ED083BDA
:10368000584B93ED124B574B93ED0E5B9DED027B28
:10369000B7EEC76B544B93ED0A7BF7EEC76B524BFB
:1036A00093ED0C7BF7EEC77B9DF81F304F4A5049D6
:1036B000B0EE677A1846FFF741FC4E4B93F83C207A
:1036C0004D4B1A704B4B93F83D204B4B5A70494B66
:1036D00093F83E20484B9A70464B93F83F20464B58
:1036E000DA70444B1B6B444A5360424B5B6B424A5B
:1036F0009360404B9B6B404AD3603B4B93F85130F7
:10370000012B04D1384BD3E90223CDE90423354BF7
:1037100093ED320B334B93ED2A1B324B93ED2E2B53
:10372000304B93ED263B2F4B93ED304B2D4B93EDD0
:103730002C5B9DED047BB7EEC76B2B4B93ED107BA1
:10374000F7EEC76B284B93ED127BF7EEC77B9DF826
:103750001F302A4A2A49B0EE677A1846FFF7EEFB77
:10376000244B93F84C20244B1A74224B93F84D2091
:10377000214B5A741F4B93F84E201F4B9A741D4BCC
:1037800093F84F201C4BDA741A4B1B6C1A4A536186
:10379000184B5B6C184A9361164B9B6C164AD361AD
:1037A000184BD3E902231749C1E90023154BD3E98C
:1037B00004231449C1E90223124BD3E9062311491A
:1037C000C1E904230F4BD3E908230E49C1E90623BD
:1037D000044BD3E900230B49C1E9082300BF09B01A
:1037E0005DF804FB180A002008040020AA0B002042
:1037F000600B0020300B0020100B0020B00B0020CD
:10380000700B0020800B002000B583B01F4B0022FE
:103810001A60502200211E4800F008FE38220021C4
:103820001C4800F003FEF82200211B4800F0FEFDBA
:1038300020220021194800F0F9FD002301930BE03C
:10384000174BD3E9002313480199C9000144C1E98A
:103850000023019B01330193019B042BF0DD0D4BF1
:10386000002283F829200B4B002283F82820002314
:103870008DF803300B490C48FFF730FB0B490C481F
:10388000FFF72CFB00BF03B05DF804FBEC05002044
:10389000300B0020800B0020180A0020100B0020A5
:1038A00008040020AA0B0020600B0020B00B0020B1
:1038B000700B002000BF704708B50F4B1B785A1CD7
:1038C000D1B20D4A1170002B09D00C4B01221A60A5
:1038D000094B1B78013BDAB2074B1A700BE062B65A
:1038E00000BFFFF79FFD72B600BF034B1B78013B83
:1038F000DAB2014B1A7008BDF4050020F005002073
:1039000000B583B0284B0193284B0093284B00222D
:103910001A70284B00221A7001DF72B600BF00F047
:1039200075F8FFF7F1F9244B1B6800221A60FFF7C6
:103930006BFF72B600BF9DED010A00F0E5F81E4B6B
:103940001B681B68002B0CBF01230023DBB21A4647
:10395000184B1A7062B600BF62B600BF15E0164B76
:103960001B681B68002B14BF01230023DBB21A461F
:103970000F4B1A700E4B1B78DBB2002B0CBF0123D0
:103980000023DBB21A460B4B1A700A4B1B78DBB2D2
:10399000002BE4D1FFF78EFF72B600BF002318465C
:1039A00003B05DF804FB00BF0AD7A33B00005843F7
:1039B000B80B0020B90B00200C53000882B003465E
:1039C00000918DF807309DF90730002B0ADB009B32
:1039D000DAB20C499DF907301201D2B20B4483F8D8
:1039E00000230BE0009BDAB207499DF8073003F093
:1039F0000F03043B1201D2B20B441A7600BF02B08F
:103A0000704700BF00E100E000ED00E008B50021D4
:103A10006FF00400FFF7D2FF00BF08BD82B003467D
:103A200000918DF807309DF90730002B0ADB009BD1
:103A3000DAB20C499DF907301201D2B20B4483F877
:103A400000230BE0009BDAB207499DF8073003F032
:103A50000F03043B1201D2B20B441A7600BF02B02E
:103A6000704700BF00E100E000ED00E000B583B06A
:103A70000190019B013BB3F1807F01D301230FE053
:103A8000094A019B013B53600F214FF0FF30FFF7C4
:103A9000C5FF054B00229A60034B07221A600023E2
:103AA000184603B05DF804FB10E000E008B5BFF372
:103AB0004F8F00BFBFF36F8F00BF0C4B1A680C4BCA
:103AC0001B689A4202D3094B00221A60074B1B68FD
:103AD0005A1C06490A60002B05D172B600BFFFF7D9
:103AE000EBFE62B600BF00BF08BD00BFBC0B0020EC
:103AF000C00B0020034B5B68024A43F080535360C5
:103B000000BF704700ED00E000B585B08DED010A03
:103B1000224B1B6807EE903AB8EE677ADDED017A2A
:103B200067EE277AFCEEE77A17EE903A0393039B51
:103B3000B3F1807F18D3039B07EE903AB8EE677A13
:103B4000DFED176AC7EE267AFCEEE77A17EE903AB9
:103B50000133144A1360134B1B68039AB2FBF3F34F
:103B60001846FFF783FF05E00E4B00221A6003980A
:103B7000FFF77CFF0C4B00221A600C4A0C4B1A60BA
:103B80000F216FF00400FFF749FF0F216FF00100D4
:103B9000FFF744FF00BF05B05DF804FB04040020FC
:103BA000FFFF7F4BC00B0020BC0B0020AD3A00088C
:103BB000C40B0020EFF3008001B5EFF3118003B4D4
:103BC0001EF0100F08BFB0EE400A0A48006803B4A8
:103BD00088B004A006904FF0807007906FF0060048
:103BE0008646704703BC8047BFF36F8F00DFFEE758
:103BF00000BF0000C40B00201EF0100F08BFB0EE85
:103C0000400A1EF0040F0CBFEFF30880EFF30980A9
:103C1000816911F8020C10B101280DD00BE01EF0E3
:103C2000100F0CBF1AB008B003BC80F3118803BC9E
:103C300080F300880847FEE74EF61451CEF20001EB
:103C40000A6842F001020A607047F4E700BF00BF53
:103C500053B94AB9002908BF00281CBF4FF0FF31F3
:103C60004FF0FF3000F06EB9ADF1080C6DE904CEF5
:103C700000F006F8DDF804E0DDE9022304B0704747
:103C80002DE9F047089D04468C46002B40F08380C8
:103C90008A42174647D9B2FA82F242B1C2F12000F5
:103CA00024FA00F09140974040EA010C94404FEA1A
:103CB0001748230CBCFBF8F61FFA87FE08FB16C159
:103CC00043EA014306FB0EF1994209D9FB1806F1BC
:103CD000FF3080F01981994240F21681023E3B4448
:103CE0005B1AA4B2B3FBF8F008FB103344EA0344B8
:103CF00000FB0EFEA64509D93C1900F1FF3380F008
:103D00000581A64540F2028102383C4440EA064063
:103D1000A4EB0E0400261DB1D4400023C5E90043E6
:103D20003146BDE8F08702B9FFDEB2FA82F2002A1E
:103D300050D1CB1B4FEA174E1FFA87F80126B3FB71
:103D4000FEFC210C0EFB1C3341EA034108FB0CF383
:103D50008B4207D979180CF1FF3002D28B4200F266
:103D6000E9808446C91AA3B2B1FBFEF00EFB101124
:103D700043EA014408FB00F8A04507D93C1900F1CB
:103D8000FF3302D2A04500F2D9801846A4EB080404
:103D900040EA0C40BFE78B4209D9002D00F0B1800A
:103DA0000026C5E9000130463146BDE8F087B3FA88
:103DB00083F6002E4AD18B4202D3824200F2B880B1
:103DC000841A61EB030101208C46002DA8D0C5E9BF
:103DD000004CA5E7C2F1200320FA03F6974001FA50
:103DE00002F04FEA174ED9403043030CB1FBFEF608
:103DF0001FFA87F80EFB161143EA014306FB08F190
:103E0000994204FA02F409D9FB1806F1FF3C80F04C
:103E10008D80994240F28A80023E3B445B1A81B217
:103E2000B3FBFEF00EFB103341EA034100FB08F345
:103E30008B4207D9791800F1FF3C73D28B4271D9BC
:103E400002383944CB1A40EA064678E7C6F1200C1E
:103E500003FA06F422FA0CF31C4320FA0CF701FAD9
:103E600006F34FEA144E21FA0CF11F433B0CB1FB51
:103E7000FEF91FFA84F80EFB191143EA014109FB10
:103E800008FA8A4502FA06F200FA06F308D9611820
:103E900009F1FF3048D28A4546D9A9F102092144E7
:103EA000A1EB0A01BFB2B1FBFEF00EFB101147EA15
:103EB000014700FB08F8B84507D9E71900F1FF31C1
:103EC0002ED2B8452CD90238274440EA0940A7EB46
:103ED0000807A0FB02894F45C64649461AD317D0AA
:103EE0005DB1B3EB0E0267EB010707FA0CFCF24081
:103EF0004CEA0202F740C5E9002700263146BDE83A
:103F0000F0872E4628460BE70646E9E61846FDE60A
:103F10004345E5D2B8EB020E69EB04010138DFE757
:103F20000846D2E760468DE78146B9E7664675E701
:103F300030464AE7ACF1020C394413E702383C44FE
:103F400024E700BF704700BF014B1868704700BFEF
:103F50006004002008B5074B044613B10021AFF3FD
:103F60000080054B1868836A03B198472046FDF727
:103F700095F800BF00000000785300088A892DE9F9
:103F8000F041054610070C4658D44B68002B05DC61
:103F90000B6C002B02DC0020BDE8F081E66A002EED
:103FA000F9D0002312F480522F682B6032D0606D5C
:103FB000A3895A0705D56368C01A636B0BB1236CDC
:103FC000C01A00230246E66A216A2846B047431C0D
:103FD000A38906D129681D292CD82A4ACA40D607A8
:103FE00028D500226260D9042269226004D5421CCF
:103FF00001D12B6803B96065616B2F600029CAD0BD
:1040000004F14403994202D0284600F017FA002038
:104010006063C1E7216A01232846B047411CC7D12C
:104020002B68002BC4D01D2B01D0162B01D12F6083
:10403000B1E7A38943F04003A381ADE70F69002FE7
:10404000A9D093070E6808BF4B690F6018BF002303
:10405000A6EB07088B60B8F1000F9CDD216AA66A09
:1040600043463A462846B047002806DCA38943F079
:104070004003A3814FF0FF308EE70744A8EB000810
:10408000E9E700BF0100402038B50B6905460C4642
:1040900013B90025284638BD18B183690BB900F063
:1040A00099F8144B9C421BD16C68B4F90C30002B6E
:1040B000EFD0626ED00704D4990502D4A06D00F051
:1040C0004CF928462146FFF759FF636EDA0705468B
:1040D000E0D4A3899B05DDD4A06D00F03FF9D9E7BA
:1040E000054B9C4201D1AC68DFE7044B9C4208BF02
:1040F000EC68DAE7385300085853000818530008F2
:10410000014620B9044B0549186800F0E1B8044B9A
:104110001868FFF7B9BF00BF78530008894000084E
:1041200060040020002310B50446C0E90033C0E954
:104130000433836081814366C2818361194608220A
:104140005C3000F073F9054B6362054BA362054BCD
:10415000E362054B2462236310BD00BFD948000809
:10416000FB4800083349000857490008014900F09E
:10417000AFB800BF8940000870B54A1E6825554396
:104180000E4605F1740100F0A9F9044640B1002182
:10419000C0E900160C30A06005F1680200F046F995
:1041A000204670BD014800F0D8B800BFCC0B0020FD
:1041B000014800F0D3B800BFCC0B0020014800F04C
:1041C000CCB800BFCB0B0020014800F0C7B800BF3F
:1041D000CB0B002010B50446FFF7F0FFA3691BB11D
:1041E000BDE81040FFF7F0BFC4E912332365134B5D
:1041F000134A1B68A262A34204BF0123A3612046A5
:1042000000F020F86060204600F01CF8A060204616
:1042100000F018F80022E06004216068FFF782FFD8
:10422000A06801220921FFF77DFFE0680222122128
:10423000FFF778FF0123A361D2E700BF785300089E
:104240006D410008F8B50746FFF7ACFF1E4B1E682E
:10425000B36913B93046FFF7BDFF4836D6E90134DC
:10426000013B03D533680BB33668F7E7B4F90C505C
:10427000D5B9164BE36004F15800656600F06CF8A0
:10428000FFF796FFC4E90155C4E904552560A5610F
:104290000822294604F15C0000F0C8F8C4E90D5575
:1042A000C4E912552046F8BD6834D9E704213846E0
:1042B000FFF762FF044630600028D5D1FFF778FF92
:1042C0000C233B60EEE700BF785300080100FFFFBE
:1042D0002DE9F8430646884600F148040027D4E952
:1042E0000195B9F1010905D52468002CF7D13846AC
:1042F000BDE8F883AB89012B07D9B5F90E3001333E
:1043000003D029463046C04707436835E9E7000037
:1043100070B50D4D0D4C641BA4100026A64209D1AA
:104320000B4D0C4C00F048FD641BA4100026A64267
:1043300005D170BD55F8043B98470136EEE755F8B6
:10434000043B98470136F2E7C8040020C804002067
:10435000C8040020CC04002070477047704700005C
:10436000024B0146186800F069B800BF60040020E5
:1043700001F0FF01102A2BDB10F0070F08D010F816
:10438000013B013A8B422DD010F0070F42B3F6D11A
:10439000F0B441EA012141EA014122F007047FF033
:1043A00000070023F0E80256083C85EA010586EA8A
:1043B000010685FA47F5A3FA87F586FA47F6A5FAC6
:1043C00087F68EB9EED1F0BC01F0FF0102F00702D2
:1043D00032B110F8013B013A83EA010313B1F8D17D
:1043E0000020704701387047002D06BF354603385E
:1043F000073815F0010F07D1013015F4807F02BF97
:10440000013015F4C03F0130F0BC0138704700BFE7
:104410000A44914200F1FF3300D1704710B511F802
:10442000014B03F8014F9142F9D110BD02440346FC
:10443000934200D1704703F8011BF9E737B5002913
:1044400048D051F8043C0190002BA1F10404B8BFFE
:10445000E418FCF719FD204A01981368154633B992
:104460006360146003B0BDE83040FCF711BDA342A7
:104470000BD921686218934204BF1A685B686360B5
:1044800004BF521822602C60ECE71A465B680BB13F
:10449000A342FAD911685518A5420BD124682144CA
:1044A0005418A3421160DDD11C685B68536021443D
:1044B0001160D7E702D90C230360D3E7256861199F
:1044C0008B4204BF19685B68636004BF49192160AF
:1044D0005460C7E703B030BDF8050020F8B5CD1C27
:1044E00025F0030508350C2D38BF0C25002D064698
:1044F00001DBA94203D90C2333600020F8BDFCF78F
:10450000C3FC21490A6814469CB9204F3B6823B973
:104510002146304600F0D0F938602946304600F098
:10452000CBF9431C23D10C2333603046FCF7B0FC9D
:10453000E3E723685B1B17D40B2B03D923601C44D0
:10454000256004E06368A2420CBF0B6053603046F4
:10455000FCF79EFC04F10B00231D20F00700C21A9B
:10456000CCD01B1AA350C9E722466468CCE7C41C10
:1045700024F00304A042E3D0211A304600F09CF955
:104580000130DDD1CFE700BFF8050020FC05002099
:104590002DE9F047164699468A680B69DDF82080B8
:1045A0009342B8BF1346336091F8432007460C4648
:1045B0000AB1013333602368990642BF336802337E
:1045C0003360256815F0060506D104F1190AE36881
:1045D00032689B1AAB4226DC94F84320131E2268F3
:1045E00018BF012392062BD404F1430249463846F2
:1045F000C04701301ED02368E568326803F0060327
:10460000042B08BFAD1AA36822690CBF25EAE57523
:1046100000259342C4BF9B1AED1800261A34B542F8
:104620001AD1002008E00123524649463846C047C7
:10463000013003D14FF0FF30BDE8F0870135C6E708
:10464000E1185A1C302081F84300224494F84510A8
:1046500082F843100233C7E7012322464946384611
:10466000C0470130E6D00136D9E700002DE9FF4709
:104670000C469146277E0C99782F80469A4604F185
:10468000430207D8622F0AD8002F00F0D880582F95
:1046900000F0A38004F1420684F842703AE0A7F1EA
:1046A0006303152BF6D801A050F823F00547000846
:1046B00019470008954600089546000895460008E9
:1046C00095460008194700089546000895460008D9
:1046D0009546000895460008254800084947000807
:1046E0000748000895460008954600084748000816
:1046F0009546000849470008954600089546000879
:104700000F4800080B681A1D1B680A6004F1420676
:1047100084F842300123A3E0256808682E0600F1E2
:1047200004030AD505680B60002D03DA2D236D42C2
:1047300084F843305E480A2319E015F0400F0568FD
:104740000B6018BF2DB2EFE70B682568181D0860D5
:10475000280601D51D6802E06906FBD51D8854486E
:104760006F2F0CBF08230A23002184F843106668CA
:10477000A660002EA2BF216821F0040121600DB9BE
:10478000002E4DD01646B5FBF3F103FB1157C75D64
:1047900006F8017D2F46BB420D46F4D9082B0BD1FC
:1047A0002368DF0708D5236961689942DEBF30239B
:1047B00006F8013C06F1FF36921B2261CDF800A0FD
:1047C0004B4603AA21464046FFF7E2FE01304CD19A
:1047D0004FF0FF3004B0BDE8F087354884F84570ED
:1047E00023680E681F0656F8045B0E6014D5D907BF
:1047F00044BF43F0200323601DB9236823F0200346
:1048000023601023B0E7236843F02003236078235C
:10481000284884F84530E3E75E0648BFADB2E6E7D6
:104820001646BBE70B68266860691D1D0D603506DE
:104830001B6801D5186002E07106FBD518800023C3
:1048400023611646BAE70B681A1D0A601E68626883
:1048500000213046FFF78CFD08B1801B6060636863
:104860002361002384F84330A8E723693246494690
:104870004046D0470130ABD023689B0713D4E06893
:10488000039B9842B8BF1846A4E701233246494625
:104890004046D04701309BD00135E36803995B1A4D
:1048A000AB42F2DCEBE7002504F11906F5E700BFA7
:1048B0007C5300088D53000838B5064D002304468C
:1048C00008462B60FCF7C6FA431C02D12B6803B1E3
:1048D000236038BDD40B002010B50C46B1F90E1082
:1048E00000F050FA0028ABBF636DA3891B1823F4B6
:1048F0008053ACBF6365A38110BD2DE9F0411F4615
:104900008B89DB0505460C46164605D5B1F90E1018
:104910000223002200F088F8A389B4F90E1023F4D2
:104920008053A38132463B462846BDE8F04100F063
:1049300059B810B50C46B1F90E1000F075F8431CCB
:10494000A38915BF606523F4805343F48053A3818A
:1049500018BFA38110BDB1F90E1000F055B8034681
:1049600013F8012B002AFBD1181A0138704730B513
:10497000141E05469BB0184605DA8B232B604FF0BA
:10498000FF301BB030BD4FF40273ADF80C3014BFD4
:1049900004F1FF332346029305934FF6FF73009112
:1049A0000491ADF80E3002461E9B6946284600F081
:1049B000E9F8431CBCBF8B232B60002CE1D0009B8B
:1049C00000221A70DDE7000007B5009313460A467F
:1049D000014603480068FFF7CAFF03B05DF804FB17
:1049E0006004002038B5074D0446084611460022F1
:1049F0002A601A46FCF7E3FA431C02D12B6803B184
:104A0000236038BDD40B002038B5064D0023044682
:104A100008462B60FCF7B6FA431C02D12B6803B1A1
:104A2000236038BDD40B002038B5074D0446084636
:104A3000114600222A601A46FCF716FB431C02D1DD
:104A40002B6803B1236038BDD40B0020884210B519
:104A500001EB020402D98442234607D8431EA14237
:104A600008D011F8012B03F8012FF8E702440146A2
:104A70008A4200D110BD13F8014D02F8014DF7E74D
:104A8000F8B5074614460E4621B9BDE8F840114670
:104A9000FFF724BD22B9FFF7D1FC25462846F8BD13
:104AA00000F082F9A0420FD221463846FFF716FDEA
:104AB00005460028F2D031462246FFF7A9FC3146D0
:104AC0003846FFF7BBFCE9E73546E7E72DE9F04755
:104AD0008E689E4282460C4690461F4638D88A8988
:104AE00012F4906F32D025680969A5EB0109656958
:104AF00005EB450505EBD57501334B446D109D4223
:104B000038BF1D46530531D52946FFF7E7FC064659
:104B100050B90C23CAF80030A38943F04003A381A5
:104B20004FF0FF30BDE8F08721694A46FFF770FC7F
:104B3000A38923F4906343F08003A3812661656118
:104B40004E44A5EB09052660A5603E46BE4200D94D
:104B50003E46324620684146FFF778FFA368226848
:104B60009B1B3244A36022600020DBE72A46FFF74C
:104B700087FF06460028E1D121695046FFF75EFC19
:104B8000C7E700002DE9F04F98468B891B069DB0C2
:104B900007460D4614460ED50B6963B94021FFF751
:104BA0009DFC2860286120B90C233B604FF0FF304A
:104BB000D1E040236B610023099320238DF8293035
:104BC000CDF80C803023DFF8A8818DF82A304FF023
:104BD000010923469A4613F8012B0AB1252AF9D177
:104BE000BAEB040B0BD05B46224629463846FFF74A
:104BF0006DFF013000F0AA80099A5A4409929AF890
:104C00000030002B00F0A28000234FF0FF32CDE9EE
:104C100005230AF1010A049307938DF853301A9380
:104C20005446052214F8011B5148FFF7A1FB049AD2
:104C3000D8B9D00644BF20238DF85330110744BFA4
:104C40002B238DF853309AF800302A2B15D0079A71
:104C5000544600204FF00A0C214611F8013B303B2E
:104C6000092B4ED9B0B1079214E0A0EB080309FA62
:104C700003F313430493A246D2E7039B191D1B6859
:104C80000391002BBBBF5B4242F0020207930793E4
:104C9000B8BF049223782E2B0CD163782A2B35D100
:104CA000039B1A1D1B680392002BB8BF4FF0FF3304
:104CB00002340593DFF8C8A0217803225046FFF79D
:104CC00057FB40B14023A0EB0A0003FA00F0049B1D
:104CD00003430134049314F8011B26488DF828106F
:104CE0000622FFF745FB002838D0234B1BBB039B54
:104CF000073323F0070308330393099B33440993D5
:104D000067E70CFB02320C460120A5E700230134C3
:104D1000059319464FF00A0C204610F8012B303A43
:104D2000092A03D9002BC5D00591C3E70CFB01214B
:104D300004460123F0E703AB00932A460F4B04A976
:104D40003846AFF30080421C0646D6D1AB895B06DD
:104D50003FF52CAF09981DB0BDE8F08F03AB009371
:104D60002A46064B04A93846FFF780FCEBE700BF54
:104D70009E530008A853000800000000CD4A000818
:104D8000A453000838B5074D0446084611460022D2
:104D90002A601A46FCF73FF9431C02D12B6803B185
:104DA000236038BDD40B002051F8043C181F002BA1
:104DB000BCBF0B58C0187047F8B500BFF8BC08BCA2
:104DC0009E467047F8B500BFF8BC08BC9E467047C9
:104DD00050696E6D6170206572726F723A207772E1
:104DE0006F6E6720706F7274206E756D6265722EC3
:104DF000002E2E2E0A000A52252D34643A2025302A
:104E0000386C58000A53502020203A202530386C46
:104E1000580A4C522020203A202530386C580A502D
:104E2000432020203A202530386C580A78505352BD
:104E3000203A202530386C580A50535020203A2010
:104E40002530386C580A4D535020203A20253038F0
:104E50006C58000A43505549443A202530386C5864
:104E6000000A48465352203A202530386C580A4DE3
:104E70004D4653523A202530386C580A4246535218
:104E8000203A202530386C580A55465352203A2093
:104E90002530386C580A44465352203A2025303881
:104EA0006C580A41465352203A202530386C58003D
:104EB0000A4D4D4641523A202530386C58000A427E
:104EC000464152203A202530386C58000A4D6F6414
:104ED00065203A20546872656164000A50726976F0
:104EE000203A2055736572000A50726976203A2084
:104EF00050726976696C65676564000A4D6F646518
:104F0000203A2048616E646C6572000A53746163D4
:104F10006B3A20505350000A537461636B3A204D32
:104F20005350000A2B2B204D6265644F532046617D
:104F3000756C742048616E646C6572202B2B0A0AB4
:104F40004661756C74547970653A20004D656D4DFD
:104F5000616E6167654661756C7400427573466188
:104F6000756C740055736167654661756C740048B3
:104F70006172644661756C74000A0A436F6E7465F1
:104F800078743A000A0A2D2D204D6265644F532033
:104F90004661756C742048616E646C6572202D2DBD
:104FA0000A0A004661756C742065786365707469DF
:104FB0006F6E0000F80100200000000000000000FB
:104FC0009D0D0008F50D0008010E0008A10D000858
:104FD000890D0008990D0008B5040008950D00081A
:104FE000B9040008C30400088F0D0008CD040008B0
:104FF000D3040008D9040008DF040008E504000811
:10500000F1040008F5040008FB040008C50D0008C1
:10501000010500081C500008A8050020592E0008B2
:10502000712E0008B92E0008CD2E00087D2E000834
:10503000992E0008DF140008A52D000800000000CC
:1050400001000000004C0040D223000003000000DB
:1050500000440040D21F000008000000007800401B
:10506000D23300000A00000000100140D21F0000EF
:105070000B000000004C0040D21B00001300000099
:1050800000780040D23300001500000000500040BE
:10509000D20700001700000000100140D21F0000DE
:1050A0001800000000500040D21F00001C0000004B
:1050B00000500040D22300001F00000000100140FB
:1050C000D21300002700000000140140D22300008A
:1050D0002B000000004C0040D223000030000000F4
:1050E000004C0040D223000032000000005000407D
:1050F000D22300003600000000440040D21F000010
:105100003900000000480040D21F000040000000AD
:10511000007C0040D22300004700000000780040DF
:10512000D22300005600000000780040D223000087
:105130006900000000140140D2230000FFFF0000BE
:10514000FFFFFFFF0000000000000000004C0040D7
:10515000D22300000200000000440040D21F0000E3
:105160000900000000100140D21F00000C000000E8
:10517000004C0040D21B00000F00000000780040EF
:10518000D23300001400000000780040D233000049
:105190001600000000100140D21F000016010000A0
:1051A00000500040D20700001900000000500040ED
:1051B000D21F00001D00000000500040D22300005C
:1051C0001E00000000100140D21300002600000065
:1051D00000140140D22300002A000000004C0040CF
:1051E000D22300002C00000000500040D223000019
:1051F00031000000004C0040D223000035000000C8
:1052000000440040D21F0000380000000048004069
:10521000D21F000041000000007C0040D2230000AB
:105220004800000000780040D22300005700000032
:1052300000780040D22300006E00000000140140FE
:10524000D2230000FFFF0000FFFFFFFF000000006F
:10525000010000000200000004000000080000003F
:10526000100000002000000040000000800000004E
:10527000000100000002000000040000000800001F
:10528000001000000020000000400000008000002E
:105290004572726F723A206E65772073657269612C
:1052A0006C206F626A656374206973207573696E20
:1052B000672073616D6520554152542061732053FE
:1052C0005444494F0004020800101010041010103C
:1052D0000210101008536574537973436C6F636B3D
:1052E000206661696C65640A00000000000000002F
:1052F0000001020304060708090000000001020380
:105300000400000040420F0020000000EC050020D7
:105310000000000000001840000000000000000035
:10532000000000000000000000000000000000007D
:10533000000000000000000000000000000000006D
:10534000000000000000000000000000000000005D
:10535000000000000000000000000000000000004D
:10536000000000000000000000000000000000003D
:1053700000000000000000006404002030313233DF
:1053800034353637383941424344454600303132AE
:105390003334353637383961626364656600232DEE
:1053A000302B2000686C4C0065666745464700005E
:0453B00000000000F9
:0853B40084AEFF7F0100000040
:1053BC0000000000FFFFFFFFFFFFFFFFFFFFFFFFED
:1053CC0000000000000000000000000000000000D1
:1053DC0000000000000000000000000000000000C1
:1053EC0000000000000000000000000000000000B1
:1053FC0000000000000000000000000000000000A1
:10540C000000000000000000000000000000000090
:10541C000000000000000000000000000000000080
:10542C000000000000000000000000000000000070
:10543C000000000000000000000000000000000060
:10544C000000000000000000000000000000000050
:10545C000000000000000000000000000000000040
:10546C000000000000000000000000000000000030
:10547C000000000000000000000000000000000020
:10548C000000000000000000000000000000000010
:10549C000000000000000000000000000000000000
:1054AC0000000000000000000000000000000000F0
:1054BC0000000000D80B0020591400080024F40050
:1054CC0000000000000000000000000000000000D0
:1054DC0000000000000000000000000000000000C0
:1054EC000000000000000000000000000000494027
:1054FC0000000000000000000000000000000000A0
:10550C000000000000004940000000000000000006
:10551C0000000000000000006404002000000000F7
:10552C0038530008585300081853000800000000B6
:10553C00000000000000000000000000000000005F
:10554C00000000000000000000000000000000004F
:10555C00000000000000000000000000000000003F
:10556C00000000000000000000000000000000002F
:10557C00000000000000000000000000000000001F
:10558C001D02000800000000F901000800000000E6
:0400000508001A11C4
:00000001FF
